:04000000FEEF17F008
:102374001E0E936EF19EE00E81121200D3EC11F04A
:10238400BAEC11F039EC13F01200096E000E016E74
:10239400085025EC12F0010E016E095025EC12F0E4
:1023A4001200C08EC09AC088C096C090C082C094EB
:0E23B400C292C19AC198C46AC36AC280120064
:1023C30001014F4E00474E0047310047320047336B
:1023D30000473400473500475200432000C0EC114A
:1023E300F0F20E036E2F0E046E800E056ECAEC1211
:1023F300F0E90E036E2F0E046E880E056ECAEC1202
:10240300F0E5EC13F08CEC13F0F2EF11F0FEEF17A4
:10241300F0C30EF66E230EF76E000EF86E00EE326A
:10242300F010EE1DF00900F5CFEEFFE550E150FA94
:10243300E100EE4FF00D0EEE6AE806FDE1000EF846
:102443006E0001F0EF11F0026E01B02BEF12F02ECF
:10245300EF12F082822FEF12F0829202C083FF828A
:10246300848294958E828082928284829483BE3DFC
:10247300EF12F03FEF12F036EF12F08290959E12BA
:1024830000076E07C003F0D8900336D8900336C216
:1024930050C30B0310C26EC282C2B253EF12F05587
:1024A300EF12F04EEF12F0C350C4CF03F0046A03EF
:1024B300C004F0036A0310056E0450066E05C001E4
:1024C300F006C002F0120003500410D8B46CEF12EF
:1024D300F06EEF12F092EF12F0010E056E76EF122E
:1024E300F0D89003360436052A04AE7BEF12F07D54
:1024F300EF12F072EF12F00350015C04500258D84F
:10250300A086EF12F088EF12F08CEF12F003500167
:102513005E0450025AD89004320332052E7DEF1226
:10252300F001C001F002C002F01200026E0250D8A6
:10253300A49EEF12F0A0EF12F0A3EF12F00150C926
:10254300EF12F00204D8A4A9EF12F0ABEF12F0C817
:10255300EF12F00128D8B4B1EF12F0B3EF12F0BECE
:10256300EF12F03250D8B4B9EF12F0BBEF12F0BE55
:10257300EF12F0326AA0EF12F00128D8A4C4EF12D0
:10258300F0C6EF12F0C8EF12F0010E326EFF0E121A
:1025930000000E016E055025EC12F0E7EF12F0017A
:1025A3000E016E03C0F6FF04C0F7FFF86A050EF7CD
:1025B3006403D00800F55005D0F6CFE9FFF7CFEA62
:1025C300FFEF5025EC12F0034A042A03C0F6FF0480
:1025D300C0F7FFF86A050EF76403D00800F550054D
:1025E300D0F6CFE9FFF7CFEAFFEF500009D8A4FDFB
:1025F300EF12F0FFEF12F0D1EF12F01200066A00B3
:102603000E056E03500410D8B40AEF13F00CEF1349
:10261300F034EF13F0010E076E14EF13F0D89003AC
:10262300360436072A04AE19EF13F01BEF13F0102C
:10263300EF13F0D890053606360350015C045002C0
:1026430058D8A027EF13F029EF13F02EEF13F00360
:1026530050015E0450025A0580D8900432033207B9
:102663002E1BEF13F005C001F006C002F012009517
:102673006A9450F80B946E8290C30E036ECD0EE8ED
:102683002EFED7032EFCD70000000E016E330E255D
:10269300EC12F01B0E036E9E0EE82EFED7032EFCEB
:1026A300D700D0000E016E330E25EC12F0A60EE813
:1026B3002EFED700D0000E016E330E25EC12F00073
:1026C300D000D00000000E016E020E25EC12F0A621
:1026D3000EE82EFED700D0000E016E380E25EC1248
:1026E300F0A60EE82EFED700D0000E016E010E25D7
:1026F300EC12F0040E036E3E0EE82EFED7032EFC02
:10270300D7000E016E0C0E25EC12F0A60EE82EFE7D
:10271300D700D012004DEC14F05B6E5BC001F001EA
:102723000E97EC12F05A6E5A04D8A49BEF13F09D47
:10273300EF13F0A8EF13F0070E5960A3EF13F0A502
:10274300EF13F0C7EF13F0592AC7EF13F0040E5A33
:1027530018D8A4AFEF13F0B1EF13F0BCEF13F05997
:1027630050D8B4B7EF13F0B9EF13F0C7EF13F05924
:1027730006C7EF13F0070E5A18D8A4C3EF13F0C51A
:10278300EF13F0C7EF13F0080E596E5950030DF312
:1027930050340FD96EDA6ADF504F6E5950030DF380
:1027A30050350FD96EDA6ADF50506E516A595003B3
:1027B3000DF350340F066E06C003F0046AC80E050D
:1027C3006ECAEC12F01200040E42EC12F001C05774
:1027D300F002C058F0140E136EAE0E146E230E15D5
:1027E3006E410E166E57C001F058C002F0036A0422
:1027F3006A000E53EC15F001C00FF002C010F00395
:10280300C011F004C012F02DEC16F00FC028F01028
:10281300C029F011C02AF012C02BF0D0EC14F0281C
:10282300C055F029C056F055C001F056C002F0045F
:102833006A0A0E036E00EC13F00150300F526E550E
:10284300C001F056C002F0046A0A0E036E65EC1272
:10285300F00150300F536E546AC00E086E55C0011C
:10286300F056C002F0046A0A0E036E00EC13F00186
:1028730050300FC7EC11F0C10E086E55C001F05671
:10288300C002F0046A0A0E036E65EC12F0015030C8
:102893000FC7EC11F01200819A818C818E81B255A1
:1028A300EF14F057EF14F05AEF14F0010ECFEF14BA
:1028B300F081B45FEF14F061EF14F064EF14F004EF
:1028C3000ECFEF14F081B669EF14F06BEF14F06ED6
:1028D300EF14F0070ECFEF14F081B873EF14F07517
:1028E300EF14F078EF14F00A0ECFEF14F0818A8121
:1028F3009C818E81B280EF14F082EF14F085EF1487
:10290300F0020ECFEF14F081B48AEF14F08CEF14C1
:10291300F08FEF14F0050ECFEF14F081B694EF149F
:10292300F096EF14F099EF14F0080ECFEF14F08146
:10293300B89EEF14F0A0EF14F0A3EF14F00B0ECF3A
:10294300EF14F0818A818C819E81B2ABEF14F0ADDC
:10295300EF14F0B0EF14F0030ECFEF14F081B4B521
:10296300EF14F0B7EF14F0BAEF14F0060ECFEF1434
:10297300F081B6BFEF14F0C1EF14F0C4EF14F00907
:102983000ECFEF14F081B8C9EF14F0CBEF14F0CEF3
:10299300EF14F00C0ECFEF14F0FF0E12002A342BBD
:1029A30034316E3150D8A4D9EF14F0DBEF14F0E5D5
:1029B300EF14F0000E286E000E296E000E2A6E0032
:1029C3000E2B6E52EF15F028C02CF029C02DF02AE3
:1029D300C02EF02BC02FF0200EF5EF14F0D8902F5F
:1029E300322E322D322C32E82EF0EF14F02C5030F0
:1029F3006E2A8EFF0E2816FF0E2916FF0E2A1600CA
:102A03000E2B16960E315E31BE0CEF15F00AEF1544
:102A1300F022EF15F03150800A970FD8B014EF155C
:102A2300F016EF15F018EF15F0DBEF14F0D8902B3C
:102A3300322A3229322832313E18EF15F03AEF1597
:102A4300F01F0E316428EF15F02AEF15F032EF1561
:102A5300F0DBEF14F0D890283629362A362B36319E
:102A6300063150D8A438EF15F03AEF15F02CEF15D6
:102A7300F03050D8B440EF15F042EF15F04AEF159F
:102A8300F02B1E2A1E291E286C000E29222A222B17
:102A93002228C028F029C029F02AC02AF02BC02BF5
:102AA300F01200096E0950D8B45AEF15F05CEF1517
:102AB300F07EEF15F004BE63EF15F061EF15F07EC5
:102AC300EF15F001C005F002C006F003C007F004E3
:102AD300C008F0051E061E071E081E052A000E0666
:102AE300220722082205C00BF006C00CF007C00D18
:102AF300F008C00EF086EF15F001C00BF002C00C19
:102B0300F003C00DF004C00EF001500210031004D6
:102B130010D8A48FEF15F091EF15F09BEF15F0008F
:102B23000E016E000E026E000E036E000E046E2C7C
:102B3300EF16F0960E0A6EA5EF15F00A2AD8900E3E
:102B4300320D320C320B32000E0B14056E000E0CDC
:102B530014066E000E0D14076EFE0E0E14086E059D
:102B630050061007100810D8A4BAEF15F0BCEF15E3
:102B7300F09FEF15F0CAEF15F00A2A010E0B26009D
:102B83000E0C220D220E22D8900E320D320C320B77
:102B930032000E0B14056E000E0C14066E000E0DA3
:102BA30014076EFF0E0E14086E055006100710086A
:102BB30010D8A4DFEF15F0E1EF15F0BEEF15F0E943
:102BC300EF15F00A06D8900B360C360D360E360D7F
:102BD300BEEEEF15F0F0EF15F0F8EF15F0020E0A68
:102BE30060F6EF15F0F8EF15F0E3EF15F00AB0FD1E
:102BF300EF15F0FFEF15F000EF16F00D9ED8900AD9
:102C0300320AC005F0066A076A086A05C008F007B9
:102C13006A066A056A05500B1206500C1207500D1E
:102C23001208500E120950D8B41AEF16F01CEF1602
:102C3300F024EF16F004BE23EF16F021EF16F02474
:102C4300EF16F00E8E0BC001F00CC002F00DC003A6
:102C5300F00EC004F012001250800B1F6E125012BF
:102C630024266E11AE38EF16F03AEF16F03BEF164E
:102C7300F026802650D8B441EF16F043EF16F057F4
:102C8300EF16F02628D8A449EF16F04BEF16F053B1
:102C9300EF16F0000E0F6E000E106E000E116E0098
:102CA3000E126E118E126A5FEF16F0000E0F6E0099
:102CB3000E106E000E116E000E126E1650800B1F5A
:102CC3001A16501624276E15AE6AEF16F06CEF161F
:102CD300F06DEF16F027802750D8B473EF16F07518
:102CE300EF16F089EF16F02728D8A47BEF16F07DB6
:102CF300EF16F085EF16F0000E136E000E146E0043
:102D03000E156E000E166E158E166A91EF16F000F4
:102D13000E136E000E146E000E156E000E166E135B
:102D230050141015101610D8A49AEF16F09CEF1635
:102D3300F0B4EF16F0000E0F6E000E106E000E11C1
:102D43006E000E126E800E11127F0E12121F5012A1
:102D5300120FC00FF010C010F011C011F012C0120A
:102D6300F0F3EF17F02650D8A4BAEF16F0BCEF1625
:102D7300F0C6EF16F0000E0F6E000E106E000E116F
:102D83006E000E126EF3EF17F0275026C017F018DF
:102D93006A175E000E185A7F0E1724206E000E1855
:102DA30020216E0FC01BF010C01CF011C01DF012CB
:102DB300C01EF0000E0F6E000E106E000E116E009E
:102DC3000E126E000E226E000E236E000E246E0095
:102DD3000E256E276A26EF17F02750D8B4F4EF16A6
:102DE300F0F6EF16F00DEF17F0D8901B361C361DDA
:102DF300361E36D8900F3610361136123625AE05EC
:102E0300EF17F007EF17F008EF17F00F80D89022B5
:102E13003623362436253613501B5C14501C5815A4
:102E2300501D5816501E58D8A01AEF17F01CEF1754
:102E3300F025EF17F0258C13501B5E14501C5A1508
:102E4300501D5A16501E5A272A190E27642CEF17A5
:102E5300F02EEF17F0EEEF16F01B501C101D101E96
:102E630010D8B437EF17F039EF17F051EF17F022FE
:102E73008051EF17F0D8900F3610361136123625E1
:102E8300AE46EF17F048EF17F049EF17F00F80D871
:102E93009022362336243625362006D8A021061163
:102EA300AE56EF17F058EF17F03CEF17F0276A25EF
:102EB300AE5EEF17F060EF17F084EF17F0FF0E220E
:102EC30014176EFF0E2314186EFF0E2414196E7F51
:102ED3000E25141A6E1750181019101A10D8B4753D
:102EE300EF17F077EF17F07BEF17F0010E276E84E3
:102EF300EF17F00FA080EF17F082EF17F084EF17B2
:102F0300F077EF17F02750D8B48AEF17F08CEF174C
:102F1300F0B0EF17F0010E0F26000E10221122124F
:102F23002212A097EF17F099EF17F0B0EF17F00FF9
:102F3300C017F010C018F011C019F012C01AF01A1F
:102F4300341A3219321832173217C00FF018C01062
:102F5300F019C011F01AC012F0204A212A21BEBB79
:102F6300EF17F0215008E12028D8A0BBEF17F0BDE0
:102F7300EF17F0C8EF17F0000E216E2068000E0F58
:102F83006E000E106E000E116E000E126E21BED575
:102F9300EF17F0215006E12004D8B0D3EF17F0D596
:102FA300EF17F0E1EF17F0216A000E206E000E0F0D
:102FB3006E000E106E000E116E000E126E1F6A2050
:102FC300C026F026A0E8EF17F0EAEF17F0EDEF17B1
:102FD300F0118EEEEF17F0119ED8902630126EA8E6
:102FE300EF16F012000047454152202020200053E5
:0D2FF3005045454420202000000AEF12F058
:020000040020DA
:08000000FFFFFFFFFFFFFFFF00
:020000040030CA
:0E000000FF071F1FFF8285FF0FC00FE00F409C
:00000001FF
