:04000000FEEF17F008
:1021460001011E0E936EF19EE00E81121200CDEC7F
:1021560010F0A4EC10F008EC13F04DEC11F01200A6
:10216600046E000E016E035012EC11F0010E016EAA
:08217600045012EC11F01200FC
:10217F004F4E00474E00473100473200473300476C
:10218F003400473500475200434C00C08EC09AC000
:10219F0088C096C090C082C094C292C19AC198C4A0
:1021AF006AC36AC2801200AAEC10F0F20E036E2FFF
:1021BF000E046E800E056E1AEC12F0E90E036E2FF0
:1021CF000E046E880E056E1AEC12F0D4EC13F05B51
:1021DF00EC13F0DDEF10F0FEEF17F06150036E041B
:1021EF006AD89003360436D89003360436D8900355
:1021FF003604366238E842070B070B056E066A0392
:10220F00500510076E04500610086E07C001F00845
:10221F00C002F01200026E01B018EF11F01BEF11A7
:10222F00F082821CEF11F0829202C083FF828482BF
:10223F0094958E828082928284829483BE2AEF113B
:10224F00F02CEF11F023EF11F08290959E12000108
:10225F00C003F0070E0316050E046ED89003360464
:10226F002E35EF11F003500F01426F01C003F00242
:10227F00C004F0D89004320332D89004320332D81D
:10228F0090043203320350416F1200939493861FD0
:10229F000E6F166F8E800E6E18D8A459EF11F05B6B
:1022AF00EF11F052EF11F0776AE10E706E1B0E71A5
:1022BF006E030E726E0D01D46B1F0E6F166F8C6056
:1022CF006A608A608C1200076E07C003F0D8900313
:1022DF0036D8900336C250C30B0310C26EC282C2EF
:1022EF00B27CEF11F07EEF11F077EF11F0C350C415
:1022FF00CF03F0046A03C004F0036A0310056E04F1
:10230F0050066E05C001F006C002F012007F0EF6F7
:10231F006E210EF76E000EF86E00EE60F010EE1BE1
:10232F00F00900F5CFEEFFE550E150FAE1460EF669
:10233F006E210EF76E000EF86E0900F5CF4DF00905
:10234F0000F5CF4EF000EE34F0190EEE6AE806FD00
:10235F00E1000EF86E0001DBEF10F003500410D80F
:10236F00B4BCEF11F0BEEF11F0E2EF11F0010E056A
:10237F006EC6EF11F0D89003360436052A04AECBA3
:10238F00EF11F0CDEF11F0C2EF11F00350015C042B
:10239F00500258D8A0D6EF11F0D8EF11F0DCEF11A2
:1023AF00F00350015E0450025AD8900432033205F4
:1023BF002ECDEF11F001C001F002C002F0120002A9
:1023CF006E0250D8A4EEEF11F0F0EF11F0F3EF1111
:1023DF00F0015019EF12F00204D8A4F9EF11F0FB3D
:1023EF00EF11F018EF12F00128D8B401EF12F0033B
:1023FF00EF12F00EEF12F04D50D8B409EF12F00BB0
:10240F00EF12F00EEF12F04D6AF0EF11F00128D835
:10241F00A414EF12F016EF12F018EF12F0010E4D98
:10242F006EFF0E1200000E016E055012EC11F03708
:10243F00EF12F0010E016E03C0F6FF04C0F7FFF8B4
:10244F006A050EF76403D00800F55005D0F6CFE10A
:10245F00FFF7CFE2FFE75012EC11F0034A042A0313
:10246F00C0F6FF04C0F7FFF86A050EF76403D00843
:10247F0000F55005D0F6CFE1FFF7CFE2FFE75000B0
:10248F0009D8A44DEF12F04FEF12F021EF12F01216
:10249F00000F01436B446B05C001F006C002F02F23
:1024AF00EC11F008C045FF460E0C6E0F0E0D6E0FAF
:1024BF006A000E0E6E72EF12F007500E24D96EDA0C
:1024CF006A0E500C24E16E0F500D20E26EDFCFE745
:1024DF00FF0E4A0F2A0850096E0A6A09500E5C0F48
:1024EF0050800A0B6E0A50800A0B58D8A082EF1248
:1024FF00F084EF12F064EF12F00F01408712000624
:10250F006A000E056E03500410D8B491EF12F093C9
:10251F00EF12F0BBEF12F0010E076E9BEF12F0D827
:10252F009003360436072A04AEA0EF12F0A2EF1282
:10253F00F097EF12F0D890053606360350015C0481
:10254F00500258D8A0AEEF12F0B0EF12F0B5EF1264
:10255F00F00350015E0450025A0580D890043203F4
:10256F0032072EA2EF12F005C001F006C002F012E2
:10257F000060AEC5EF12F0C7EF12F003EF13F0F5E6
:10258F00EC10F00950D96EDA6A01C0DEFF02C0DD2F
:10259F00FF0B50D96EDA6A65CFDFFF660E0F6E0F35
:1025AF000E106E126A000E116EECEF12F011500F3A
:1025BF0024D96E12501020DA6E0A501124E16EE207
:1025CF006ADFCFE7FF114A122A0B50D96EDA6ADFA2
:1025DF00500C6E0D6A0C50115C1250800A0E6E0D6D
:1025EF0050800A0E58D8A0FFEF12F001EF13F0DE63
:1025FF00EF12F0609EA4900B50D96EDA6ADF6A1268
:10260F0000956A9450F80B946E8290C30E036ECDB2
:10261F000EE82EFED7032EFCD70000000E016E33FE
:10262F000E12EC11F01B0E036E9E0EE82EFED7035A
:10263F002EFCD700D0000E016E330E12EC11F0A657
:10264F000EE82EFED700D0000E016E330E12EC11E5
:10265F00F000D000D00000000E016E020E12EC113F
:10266F00F0A60EE82EFED700D0000E016E380E1227
:10267F00EC11F0A60EE82EFED700D0000E016E0171
:10268F000E12EC11F0040E036E3E0EE82EFED70371
:10269F002EFCD7000E016E0C0E12EC11F0A60EE8F8
:1026AF002EFED700D012004DEC14F03A6E3AC00156
:1026BF00F0010EE7EC11F0396E3904D8A46AEF136C
:1026CF00F06CEF13F077EF13F0070E386072EF1323
:1026DF00F074EF13F096EF13F0382A96EF13F0041F
:1026EF000E3918D8A47EEF13F080EF13F08BEF1391
:1026FF00F03850D8B486EF13F088EF13F096EF133D
:10270F00F0380696EF13F0070E3918D8A492EF138E
:10271F00F094EF13F096EF13F0080E386E38500365
:10272F000DF350600FD96EDA6ADF50416E385003E7
:10273F000DF350610FD96EDA6ADF50426E436A4172
:10274F000E036E046AC80E056E1AEC12F0066A20AC
:10275F000E056E410E076E020E086E50EC12F0035E
:10276F000E146E080E136E770EE82EFED7132EFC86
:10277F00D7142EFAD70000470E096E3B0E0A6E4B88
:10278F000E0B6EC0EC12F03D6A3B0E036E046ACC6A
:10279F000E056E1AEC12F01200040E6BEC11F00124
:1027AF00C036F002C037F0140E136EAE0E146E2347
:1027BF000E156E410E166E36C001F037C002F003D3
:1027CF006A046A000E53EC15F001C00FF002C0103E
:1027DF00F003C011F004C012F02DEC16F00FC0285A
:1027EF00F010C029F011C02AF012C02BF0D0EC1459
:1027FF00F028C034F029C035F034C001F035C002E4
:10280F00F0046A0A0E036E87EC12F00150300F4489
:10281F006E34C001F035C002F0046A0A0E036EB5C3
:10282F00EC11F00150300F456E466AC50E036E4431
:10283F0050B3EC10F0C60E036E4550B3EC10F0061B
:10284F006A100E056E440E076E020E086E50EC12E3
:10285F00F0030E336E080E326E770EE82EFED7326F
:10286F002EFCD7332EFAD70000490E096E3E0E0A02
:10287F006E4C0E0B6EC0EC12F0406A3E0E036E04EF
:10288F006AC00E056E1AEC12F01200819A818C81CB
:10289F008E81B255EF14F057EF14F05AEF14F00188
:1028AF000ECFEF14F081B45FEF14F061EF14F0640A
:1028BF00EF14F0040ECFEF14F081B669EF14F06B44
:1028CF00EF14F06EEF14F0070ECFEF14F081B87322
:1028DF00EF14F075EF14F078EF14F00A0ECFEF1439
:1028EF00F0818A819C818E81B280EF14F082EF1487
:1028FF00F085EF14F0020ECFEF14F081B48AEF14CD
:10290F00F08CEF14F08FEF14F0050ECFEF14F08171
:10291F00B694EF14F096EF14F099EF14F0080ECF71
:10292F00EF14F081B89EEF14F0A0EF14F0A3EF14A2
:10293F00F00B0ECFEF14F0818A818C819E81B2ABA8
:10294F00EF14F0ADEF14F0B0EF14F0030ECFEF145F
:10295F00F081B4B5EF14F0B7EF14F0BAEF14F0063E
:10296F000ECFEF14F081B6BFEF14F0C1EF14F0C427
:10297F00EF14F0090ECFEF14F081B8C9EF14F0CBBC
:10298F00EF14F0CEEF14F00C0ECFEF14F0FF0E1289
:10299F00002A342B34316E3150D8A4D9EF14F0DB28
:1029AF00EF14F0E5EF14F0000E286E000E296E0004
:1029BF000E2A6E000E2B6E52EF15F028C02CF02948
:1029CF00C02DF02AC02EF02BC02FF0200EF5EF14E3
:1029DF00F0D8902F322E322D322C32E82EF0EF1409
:1029EF00F02C50306E2A8EFF0E2816FF0E2916FF80
:1029FF000E2A16000E2B16960E315E31BE0CEF15F9
:102A0F00F00AEF15F022EF15F03150800A970FD82A
:102A1F00B014EF15F016EF15F018EF15F0DBEF14FB
:102A2F00F0D8902B322A3229322832313E18EF1546
:102A3F00F03AEF15F01F0E316428EF15F02AEF155D
:102A4F00F032EF15F0DBEF14F0D890283629362A44
:102A5F00362B3631063150D8A438EF15F03AEF1532
:102A6F00F02CEF15F03050D8B440EF15F042EF15C1
:102A7F00F04AEF15F02B1E2A1E291E286C000E2976
:102A8F00222A222B2228C028F029C029F02AC02A66
:102A9F00F02BC02BF01200096E0950D8B45AEF1565
:102AAF00F05CEF15F07EEF15F004BE63EF15F061EB
:102ABF00EF15F07EEF15F001C005F002C006F00330
:102ACF00C007F004C008F0051E061E071E081E05ED
:102ADF002A000E06220722082205C00BF006C00CA2
:102AEF00F007C00DF008C00EF086EF15F001C00B17
:102AFF00F002C00CF003C00DF004C00EF001500244
:102B0F001003100410D8A48FEF15F091EF15F09B60
:102B1F00EF15F0000E016E000E026E000E036E0038
:102B2F000E046E2CEF16F0960E0A6EA5EF15F00A36
:102B3F002AD8900E320D320C320B32000E0B1405C8
:102B4F006E000E0C14066E000E0D14076EFE0E0EA8
:102B5F0014086E0550061007100810D8A4BAEF1508
:102B6F00F0BCEF15F09FEF15F0CAEF15F00A2A0130
:102B7F000E0B26000E0C220D220E22D8900E320DB7
:102B8F00320C320B32000E0B14056E000E0C1406B5
:102B9F006E000E0D14076EFF0E0E14086E05500614
:102BAF001007100810D8A4DFEF15F0E1EF15F0BEF5
:102BBF00EF15F0E9EF15F00A06D8900B360C360D2D
:102BCF00360E360DBEEEEF15F0F0EF15F0F8EF15EF
:102BDF00F0020E0A60F6EF15F0F8EF15F0E3EF15BF
:102BEF00F00AB0FDEF15F0FFEF15F000EF16F00D46
:102BFF009ED8900A320AC005F0066A076A086A056D
:102C0F00C008F0076A066A056A05500B1206500CD9
:102C1F001207500D1208500E120950D8B41AEF16A1
:102C2F00F01CEF16F024EF16F004BE23EF16F02180
:102C3F00EF16F024EF16F00E8E0BC001F00CC00251
:102C4F00F00DC003F00EC004F012001250800B1FE5
:102C5F006E12501224266E11AE38EF16F03AEF16A0
:102C6F00F03BEF16F026802650D8B441EF16F04314
:102C7F00EF16F057EF16F02628D8A449EF16F04BB1
:102C8F00EF16F053EF16F0000E0F6E000E106E00E1
:102C9F000E116E000E126E118E126A5FEF16F0009B
:102CAF000E0F6E000E106E000E116E000E126E16CD
:102CBF0050800B1F1A16501624276E15AE6AEF168A
:102CCF00F06CEF16F06DEF16F027802750D8B47325
:102CDF00EF16F075EF16F089EF16F02728D8A47BC2
:102CEF00EF16F07DEF16F085EF16F0000E136E0065
:102CFF000E146E000E156E000E166E158E166A915E
:102D0F00EF16F0000E136E000E146E000E156E000F
:102D1F000E166E1350141015101610D8A49AEF1625
:102D2F00F09CEF16F0B4EF16F0000E0F6E000E10C1
:102D3F006E000E116E000E126E800E11127F0E12AB
:102D4F00121F5012120FC00FF010C010F011C0114F
:102D5F00F012C012F0F3EF17F02650D8A4BAEF1606
:102D6F00F0BCEF16F0C6EF16F0000E0F6E000E104F
:102D7F006E000E116E000E126EF3EF17F027502635
:102D8F00C017F0186A175E000E185A7F0E1724200E
:102D9F006E000E1820216E0FC01BF010C01CF0111A
:102DAF00C01DF012C01EF0000E0F6E000E106E0050
:102DBF000E116E000E126E000E226E000E236E00AC
:102DCF000E246E000E256E276A26EF17F02750D8B7
:102DDF00B4F4EF16F0F6EF16F00DEF17F0D8901BD6
:102DEF00361C361D361E36D8900F36103611361259
:102DFF003625AE05EF17F007EF17F008EF17F00FB6
:102E0F0080D890223623362436253613501B5C1477
:102E1F00501C5815501D5816501E58D8A01AEF1791
:102E2F00F01CEF17F025EF17F0258C13501B5E14D5
:102E3F00501C5A15501D5A16501E5A272A190E2764
:102E4F00642CEF17F02EEF17F0EEEF16F01B501C5F
:102E5F00101D101E10D8B437EF17F039EF17F051BF
:102E6F00EF17F0228051EF17F0D8900F3610361170
:102E7F0036123625AE46EF17F048EF17F049EF1729
:102E8F00F00F80D89022362336243625362006D8E8
:102E9F00A0210611AE56EF17F058EF17F03CEF17C1
:102EAF00F0276A25AE5EEF17F060EF17F084EF178B
:102EBF00F0FF0E2214176EFF0E2314186EFF0E2450
:102ECF0014196E7F0E25141A6E1750181019101A38
:102EDF0010D8B475EF17F077EF17F07BEF17F001FD
:102EEF000E276E84EF17F00FA080EF17F082EF1709
:102EFF00F084EF17F077EF17F02750D8B48AEF1759
:102F0F00F08CEF17F0B0EF17F0010E0F26000E1038
:102F1F00221122122212A097EF17F099EF17F0B09B
:102F2F00EF17F00FC017F010C018F011C019F01202
:102F3F00C01AF01A341A3219321832173217C00F5A
:102F4F00F018C010F019C011F01AC012F0204A2169
:102F5F002A21BEBBEF17F0215008E12028D8A0BBD3
:102F6F00EF17F0BDEF17F0C8EF17F0000E216E202E
:102F7F0068000E0F6E000E106E000E116E000E1216
:102F8F006E21BED5EF17F0215006E12004D8B0D343
:102F9F00EF17F0D5EF17F0E1EF17F0216A000E20D1
:102FAF006E000E0F6E000E106E000E116E000E12E0
:102FBF006E1F6A20C026F026A0E8EF17F0EAEF1781
:102FCF00F0EDEF17F0118EEEEF17F0119ED890265F
:102FDF0030126EA8EF16F012000047454152202024
:102FEF00202000535045454420202000008EEF1133
:012FFF00F0E1
:020000040020DA
:08000000FFFFFFFFFFFFFFFF00
:020000040030CA
:0E000000FF071F1FFF8285FF0FC00FE00F409C
:00000001FF
