:04000000FEEF3FF0E0
:1006000000474541522020202000535045454420BA
:1006100020200000819A818C818E81B212EF03F03C
:1006200014EF03F017EF03F0010E8CEF03F081B429
:100630001CEF03F01EEF03F021EF03F0040E8CEF2C
:1006400003F081B626EF03F028EF03F02BEF03F061
:10065000070E8CEF03F081B830EF03F032EF03F0B8
:1006600035EF03F00A0E8CEF03F0818A819C818EB6
:1006700081B23DEF03F03FEF03F042EF03F0020ED3
:100680008CEF03F081B447EF03F049EF03F04CEF38
:1006900003F0050E8CEF03F081B651EF03F053EF3A
:1006A00003F056EF03F0080E8CEF03F081B85BEF18
:1006B00003F05DEF03F060EF03F00B0E8CEF03F03F
:1006C000818A818C819E81B268EF03F06AEF03F02A
:1006D0006DEF03F0030E8CEF03F081B472EF03F0C3
:1006E00074EF03F077EF03F0060E8CEF03F081B6A2
:1006F0007CEF03F07EEF03F081EF03F0090E8CEF47
:1007000003F081B886EF03F088EF03F08BEF03F07E
:100710000C0E8CEF03F0FF0E12002F6A2DBE95EF2A
:1007200003F093EF03F09BEF03F02C6C2D1ED8B079
:100730002D2A010E2F6E2BBEA2EF03F0A0EF03F0C7
:10074000A8EF03F02A6C2B1ED8B02B2A010E2F1A0B
:10075000316A000E306E2C502D10D8B4B2EF03F079
:10076000B4EF03F0DCEF03F0010E2E6EBCEF03F0EC
:10077000D8902C362D362E2A2DAEC1EF03F0C3EFC4
:1007800003F0B8EF03F0D890303631362C502A5CA5
:100790002D502B58D8A0CFEF03F0D1EF03F0D6EFB8
:1007A00003F02C502A5E2D502B5A3080D8902D32D9
:1007B0002C322E2EC3EF03F02F50D8B4E2EF03F00B
:1007C000E4EF03F0E8EF03F0306C311ED8B0312ACB
:1007D00030C02AF031C02BF012000AEC03F0286E72
:1007E00028C02AF0010EAEEC05F0276E2704D8A42D
:1007F000FCEF03F0FEEF03F009EF04F0070E2660B4
:1008000004EF04F006EF04F028EF04F0262A28EFA6
:1008100004F0040E2718D8A410EF04F012EF04F02F
:100820001DEF04F02650D8B418EF04F01AEF04F0CE
:1008300028EF04F0260628EF04F0070E2718D8A4A6
:1008400024EF04F026EF04F028EF04F0080E266EE3
:100850002650030DF350030FD96EDA6ADF501E6E77
:100860002650030DF350040FD96EDA6ADF501F6E65
:10087000206A2650030DF350030F2F6E2FC02CF06B
:100880002D6AC80E2E6E78EC05F012002F6A2BBE72
:100890004EEF04F04CEF04F054EF04F02A6C2B1EE2
:1008A000D8B02B2A010E2F6E2DBE5BEF04F059EF4E
:1008B00004F05FEF04F02C6C2D1ED8B02D2A2C50C4
:1008C0002D10D8B466EF04F068EF04F08CEF04F05C
:1008D000010E2E6E70EF04F0D8902C362D362E2A95
:1008E0002DAE75EF04F077EF04F06CEF04F02C50B0
:1008F0002A5C2D502B58D8A080EF04F082EF04F032
:1009000086EF04F02C502A5E2D502B5AD8902D32B1
:100910002C322E2E77EF04F02F50D8B492EF04F043
:1009200094EF04F098EF04F02A6C2B1ED8B02B2A19
:100930002AC02AF02BC02BF01200956A9450F80BB5
:10094000946E8290C30E2C6ECD0EE82EFED72C2E08
:10095000FCD70000000E2A6E330E22EC06F01B0EB0
:100960002C6E9E0EE82EFED72C2EFCD700D0000E4B
:100970002A6E330E22EC06F0A60EE82EFED700D02B
:10098000000E2A6E330E22EC06F000D000D00000DC
:10099000000E2A6E020E22EC06F0A60EE82EFED7FE
:1009A00000D0000E2A6E380E22EC06F0A60EE82EBD
:1009B000FED700D0000E2A6E010E22EC06F0040EC7
:1009C0002C6E3E0EE82EFED72C2EFCD7000E2A6E83
:1009D0000C0E22EC06F0A60EE82EFED700D0120078
:1009E000040EE1EC05F02AC024F02BC025F0630EC4
:1009F0002402F3CF34F0F4CF35F02502F35035263E
:100A000034C02AF035C02BF0030E2D6E2C683FEC5D
:100A100005F02A50296E29C02AF02B6A2D6A0A0E89
:100A20002C6E8DEC03F02A50300F216E29C02AF075
:100A30002B6A2D6A0A0E2C6E46EC04F02A50300FF9
:100A4000226E236AC00E326E29C02AF02B6A2D6AEC
:100A50000A0E2C6E8DEC03F02A50300F77EC06F066
:100A6000C10E326E29C02AF02B6A2D6A0A0E2C6E36
:100A700046EC04F02A50300F77EC06F012002F6A93
:100A8000000E2E6E2C502D10D8B449EF05F04BEF10
:100A900005F073EF05F0010E306E53EF05F0D890BE
:100AA0002C362D36302A2DAE58EF05F05AEF05F0D2
:100AB0004FEF05F0D8902E362F362C502A5C2D5053
:100AC0002B58D8A066EF05F068EF05F06DEF05F044
:100AD0002C502A5E2D502B5A2E80D8902D322C323D
:100AE000302E5AEF05F02EC02AF02FC02BF0120046
:100AF000000E2A6E2E5022EC06F095EF05F0010E46
:100B00002A6E2CC0F6FF2DC0F7FFF86A050EF764B9
:100B100003D00800F55005D0F6CFE9FFF7CFEAFF84
:100B2000EF5022EC06F02C4A2D2A2CC0F6FF2DC0E7
:100B3000F7FFF86A050EF76403D00800F55005D0FA
:100B4000F6CFE9FFF7CFEAFFEF500009D8A4ABEFEB
:100B500005F0ADEF05F07FEF05F012002B6E2B5086
:100B6000D8A4B5EF05F0B7EF05F0BAEF05F02A50BD
:100B7000E0EF05F02B04D8A4C0EF05F0C2EF05F0BC
:100B8000DFEF05F02A28D8B4C8EF05F0CAEF05F06A
:100B9000D5EF05F00150D8B4D0EF05F0D2EF05F055
:100BA000D5EF05F0016AB7EF05F02A28D8A4DBEFEE
:100BB00005F0DDEF05F0DFEF05F0010E016EFF0E31
:100BC0001200306E30C02CF0D8902C36D8902C36D5
:100BD000C250C30B2C10C26EC282C2B2F2EF05F03B
:100BE000F4EF05F0EDEF05F0C350C4CF2CF02D6A03
:100BF0002CC02DF02C6A2C102E6E2D502F6E2EC076
:100C00002AF02FC02BF0120083EC06F00A0E2C6E97
:100C10002C50D8A4060E2D6E800E2E6E78EC05F0AA
:100C2000010E2C6E2C50D8A4060E2D6E880E2E6E42
:100C300078EC05F0F0EC04F0EDEC03F006EF06F0D4
:100C4000FEEF3FF02B6E2AB028EF06F02BEF06F0F8
:100C500082822CEF06F082922BC083FF82848294E2
:100C6000958E828082928284829483BE3AEF06F0CF
:100C70003CEF06F033EF06F08290959E1200B40E22
:100C8000F66E0C0EF76E000EF86E00EE01F010EE30
:100C90001DF00900F5CFEEFFE550E150FAE100EE5E
:100CA0001EF00C0EEE6AE806FDE1000EF86E000183
:100CB00004EF06F001014F4E00474E004731004758
:100CC0003200473300473400473500475200432085
:010CD0000023
:100CD200C08EC09AC088C096C090C082C094C29292
:100CE200C19AC198C46AC36AC2801200336E000EF0
:100CF2002A6E325022EC06F0010E2A6E335022EC9C
:100D020006F0120069EC06F08AEC06F09DEC04F0A5
:0E0D120012001E0E936EF19EE00E8112120072
:047FFC003FEF06F05D
:020000040020DA
:08000000FFFFFFFFFFFFFFFF00
:020000040030CA
:0E000000FF071F1FFF8285FF0FC00FE00F409C
:00000001FF
