:04000000FEEF17F008
:1006000000002B50800B346E2B502B243A6E2AAEF8
:100610000CEF03F00EEF03F00FEF03F03A803A50C7
:10062000D8B415EF03F017EF03F02AEF03F03A28E0
:10063000D8A41DEF03F01FEF03F027EF03F0000E27
:10064000286E000E296E000E2A6E000E2B6E2A8E6A
:1006500032EF03F0000E286E000E296E000E2A6E97
:10066000000E2B6E2F50800B341A2F502F24396E12
:100670002EAE3DEF03F03FEF03F040EF03F0398083
:100680003950D8B446EF03F048EF03F05BEF03F0C6
:100690003928D8A44EEF03F050EF03F058EF03F0E1
:1006A000000E2C6E000E2D6E000E2E6E000E2F6EA4
:1006B0002E8E63EF03F0000E2C6E000E2D6E000EDA
:1006C0002E6E000E2F6E3950D8B469EF03F06BEF29
:1006D00003F073EF03F03A50D8A471EF03F073EF17
:1006E00003F07DEF03F0000E286E000E296E000E61
:1006F0002A6E000E2B6E13EF05F02E502802F3CF5A
:100700003FF0F4CF40F03F50356E366A376A386AB2
:1007100040503B6E3C6A3D6A3E6A2D502902F3CF41
:100720003FF0F4CF40F03F503526000E36223722FE
:10073000382240503B26000E3C223D223E222C50C7
:100740002A02F3CF3FF0F4CF40F03F503526000EA1
:1007500036223722382240503B26000E3C223D22D2
:100760003E2237C038F036C037F035C036F0356A33
:100770002C502902F3CF3FF0F4CF40F03F50352604
:1007800040503622000E3722000E38222D5028020B
:10079000F3CF3FF0F4CF40F03F50352640503622A3
:1007A000000E3722000E382237C038F036C037F03E
:1007B00035C036F0356A2C502802F3CF3FF0F4CF25
:1007C00040F03F50352640503622000E3722000EB2
:1007D00038222E502902F3CF3FF0F4CF40F03F50A3
:1007E0003B2640503C22000E3D22000E3E222D5062
:1007F0002A02F3CF3FF0F4CF40F03F503B26405069
:100800003C22000E3D22000E3E222E502A02F3CF43
:100810003FF0F4CF40F03F50306E4050316E326ABE
:10082000336A32C033F031C032F030C031F0306A58
:1008300030503B2631503C2232503D2233503E2234
:1008400035C030F036C031F037C032F038C033F048
:10085000190E30EF04F0D890333232323132303268
:10086000E82E2BEF04F030503B2631503C22325022
:100870003D2233503E2237C038F036C037F035C005
:1008800036F0356A39503AC030F0316A3026000E01
:100890003122820E30243F6EFF0E3120406E66EF13
:1008A00004F0D8903B363C363D363E3638AE5BEFF2
:1008B00004F05DEF04F05EEF04F03B80D890353635
:1008C0003636373638363F06D8A040063DAE6BEF99
:1008D00004F06DEF04F051EF04F0396A38AE73EFB5
:1008E00004F075EF04F099EF04F0FF0E3514306E4C
:1008F000FF0E3614316EFF0E3714326E7F0E381431
:10090000336E3050311032103310D8B48AEF04F007
:100910008CEF04F090EF04F0010E396E99EF04F0C3
:100920003BA095EF04F097EF04F099EF04F08CEF03
:1009300004F03950D8B49FEF04F0A1EF04F0C5EFF4
:1009400004F0010E3B26000E3C223D223E223EA03A
:10095000ACEF04F0AEEF04F0C5EF04F03BC030F0B4
:100960003CC031F03DC032F03EC033F0333433325E
:1009700032323132303230C03BF031C03CF032C024
:100980003DF033C03EF03F4A402A40BED0EF04F075
:10099000405008E13F28D8A0D0EF04F0D2EF04F097
:1009A000DCEF04F0000E3B6E000E3C6E800E3D6EE0
:1009B0007F0E3E6E09EF05F040BEE9EF04F04050B7
:1009C00006E13F04D8B0E7EF04F0E9EF04F0F4EFFC
:1009D00004F0000E3B6E000E3C6E000E3D6E000EED
:1009E0003E6E346A09EF05F03FC03AF0FF0E3B1649
:1009F000FF0E3C167F0E3D16000E3E163AA003EF8A
:100A000005F005EF05F006EF05F03D8ED8903A3081
:100A10003E6E34503E123BC028F03CC029F03DC031
:100A20002AF03EC02BF012001250800B1F6E1250A5
:100A30001224266E11AE1FEF05F021EF05F022EF14
:100A400005F026802650D8B428EF05F02AEF05F0EF
:100A50003EEF05F02628D8A430EF05F032EF05F080
:100A60003AEF05F0000E0F6E000E106E000E116EC4
:100A7000000E126E118E126A46EF05F0000E0F6E18
:100A8000000E106E000E116E000E126E1650800BCE
:100A90001F1A16501624276E15AE51EF05F053EFAE
:100AA00005F054EF05F027802750D8B45AEF05F031
:100AB0005CEF05F070EF05F02728D8A462EF05F091
:100AC00064EF05F06CEF05F0000E136E000E146E6F
:100AD000000E156E000E166E158E166A78EF05F074
:100AE000000E136E000E146E000E156E000E166EC4
:100AF0001350141015101610D8A481EF05F083EFD1
:100B000005F09BEF05F0000E0F6E000E106E000E4C
:100B1000116E000E126E800E11127F0E12121F50F7
:100B200012120FC00FF010C010F011C011F012C05F
:100B300012F0DAEF06F02650D8A4A1EF05F0A3EFEB
:100B400005F0ADEF05F0000E0F6E000E106E000EFA
:100B5000116E000E126EDAEF06F0275026C017F065
:100B6000186A175E000E185A7F0E1724206E000EAA
:100B70001820216E0FC01BF010C01CF011C01DF01A
:100B800012C01EF0000E0F6E000E106E000E116EE1
:100B9000000E126E000E226E000E236E000E246EEA
:100BA000000E256E276A0DEF06F02750D8B4DBEF54
:100BB00005F0DDEF05F0F4EF05F0D8901B361C369C
:100BC0001D361E36D8900F3610361136123625AE29
:100BD000ECEF05F0EEEF05F0EFEF05F00F80D890A9
:100BE000223623362436253613501B5C14501C58ED
:100BF00015501D5816501E58D8A001EF06F003EFEF
:100C000006F00CEF06F0258C13501B5E14501C5A96
:100C100015501D5A16501E5A272A190E276413EF15
:100C200006F015EF06F0D5EF05F01B501C101D1057
:100C30001E10D8B41EEF06F020EF06F038EF06F0D5
:100C4000228038EF06F0D8900F3610361136123663
:100C500025AE2DEF06F02FEF06F030EF06F00F80F7
:100C6000D89022362336243625362006D8A02106F1
:100C700011AE3DEF06F03FEF06F023EF06F0276AD6
:100C800025AE45EF06F047EF06F06BEF06F0FF0EDE
:100C90002214176EFF0E2314186EFF0E2414196E03
:100CA0007F0E25141A6E1750181019101A10D8B488
:100CB0005CEF06F05EEF06F062EF06F0010E276EC5
:100CC0006BEF06F00FA067EF06F069EF06F06BEF31
:100CD00006F05EEF06F02750D8B471EF06F073EF20
:100CE00006F097EF06F0010E0F26000E10221122DB
:100CF000122212A07EEF06F080EF06F097EF06F0CA
:100D00000FC017F010C018F011C019F012C01AF07F
:100D10001A341A3219321832173217C00FF018C0AD
:100D200010F019C011F01AC012F0204A212A21BE79
:100D3000A2EF06F0215008E12028D8A0A2EF06F08B
:100D4000A4EF06F0AFEF06F0000E216E2068000E53
:100D50000F6E000E106E000E116E000E126E21BE90
:100D6000BCEF06F0215006E12004D8B0BAEF06F03F
:100D7000BCEF06F0C8EF06F0216A000E206E000EF0
:100D80000F6E000E106E000E116E000E126E1F6AB6
:100D900020C026F026A0CFEF06F0D1EF06F0D4EF6A
:100DA00006F0118ED5EF06F0119ED8902630126E07
:100DB0008FEF05F01200040EC6EC0AF001C051F0EE
:100DC00002C052F0000E2C6E000E2D6E700E2E6EB4
:100DD000420E2F6E140E136EAE0E146E230E156E91
:100DE000410E166E51C001F052C002F0036A046A4F
:100DF000000EB8EC07F001C00FF002C010F003C005
:100E000011F004C012F014EC05F00FC028F010C06F
:100E100029F011C02AF012C02BF001EC03F028C019
:100E200041F029C042F02AC043F02BC044F092ECBC
:100E300008F041C04FF042C050F04FC001F050C028
:100E400002F0030E046EE80E036E97EC09F00150F9
:100E5000300F0001656F046A640E036E4FC001F02D
:100E600050C002F097EC09F001C008F002C009F090
:100E70000B6A0A0E0A6E39EC0AF00850300F0001B6
:100E8000666F046A0A0E036E4FC001F050C002F094
:100E900097EC09F001C008F002C009F00B6A0A0ED5
:100EA0000A6E39EC0AF00850300F0001676F4FC02E
:100EB00008F050C009F00B6A0A0E0A6E39EC0AF00D
:100EC0000850300F0001686F696B066A300E056EBE
:100ED000650E076E050E086ED0EC09F0030E4C6E21
:100EE000080E4B6E770EE82EFED74B2EFCD74C2EFD
:100EF000FAD70000580E096E600E0A6E5A0E0B6E7D
:100F000015EC09F05A50600FD96EDA6ADF6A0001F9
:100F100060513A0FD96EDA6ADF50546E61513A0F60
:100F2000D96EDA6ADF50556E62513A0FD96EDA6ABD
:100F3000DF50566E63513A0FD96EDA6ADF50576E42
:100F40004E6A000E4D6E540E016E07EC0AF04D4ACB
:100F50004E2A4EBEB5EF07F04E5009E10A0E4D5C29
:100F6000D8A0B5EF07F0B7EF07F0A3EF07F0120036
:100F7000096E0950D8B4BFEF07F0C1EF07F0E3EFF7
:100F800007F004BEC8EF07F0C6EF07F0E3EF07F085
:100F900001C005F002C006F003C007F004C008F06D
:100FA000051E061E071E081E052A000E0622072221
:100FB000082205C00BF006C00CF007C00DF008C0F9
:100FC0000EF0EBEF07F001C00BF002C00CF003C015
:100FD0000DF004C00EF00150021003100410D8A44C
:100FE000F4EF07F0F6EF07F000EF08F0000E016EE7
:100FF000000E026E000E036E000E046E91EF08F0FC
:10100000960E0A6E0AEF08F00A2AD8900E320D32B8
:101010000C320B32000E0B14056E000E0C14066E13
:10102000000E0D14076EFE0E0E14086E055006100D
:1010300007100810D8A41FEF08F021EF08F004EF04
:1010400008F02FEF08F00A2A010E0B26000E0C22E2
:101050000D220E22D8900E320D320C320B32000EC1
:101060000B14056E000E0C14066E000E0D14076EA8
:10107000FF0E0E14086E0550061007100810D8A4B5
:1010800044EF08F046EF08F023EF08F04EEF08F0C9
:101090000A06D8900B360C360D360E360DBE53EFC1
:1010A00008F055EF08F05DEF08F0020E0A605BEF04
:1010B00008F05DEF08F048EF08F00AB062EF08F0C2
:1010C00064EF08F065EF08F00D9ED8900A320AC070
:1010D00005F0066A076A086A05C008F0076A066A2A
:1010E000056A05500B1206500C1207500D120850DD
:1010F0000E120950D8B47FEF08F081EF08F089EFA5
:1011000008F004BE88EF08F086EF08F089EF08F0D9
:101110000E8E0BC001F00CC002F00DC003F00EC02B
:1011200004F01200433444344A6E4A50D8A49BEF72
:1011300008F09DEF08F0A7EF08F0000E416E000EDA
:10114000426E000E436E000E446E14EF09F041C073
:1011500045F042C046F043C047F044C048F0200E7E
:10116000B7EF08F0D8904832473246324532E82E81
:10117000B2EF08F04550496E438EFF0E4116FF0E48
:101180004216FF0E4316000E4416960E4A5E4ABEE5
:10119000CEEF08F0CCEF08F0E4EF08F04A50800AF8
:1011A000970FD8B0D6EF08F0D8EF08F0DAEF08F0D4
:1011B0009DEF08F0D89044324332423241324A3EE9
:1011C000DAEF08F0FCEF08F01F0E4A64EAEF08F0CF
:1011D000ECEF08F0F4EF08F09DEF08F0D8904136FE
:1011E0004236433644364A064A50D8A4FAEF08F04D
:1011F000FCEF08F0EEEF08F04950D8B402EF09F028
:1012000004EF09F00CEF09F0441E431E421E416C2E
:10121000000E42224322442241C041F042C042F02B
:1012200043C043F044C044F0120060AE1AEF09F02E
:101230001CEF09F058EF09F025EC0BF00950D96EBE
:10124000DA6A01C0DEFF02C0DDFF0B50D96EDA6A38
:1012500065CFDFFF660E0F6E0F0E106E126A000E66
:10126000116E41EF09F011500F24D96E1250102069
:10127000DA6E0A501124E16EE26ADFCFE7FF114A0D
:10128000122A0B50D96EDA6ADF500C6E0D6A0C50C0
:10129000115C1250800A0E6E0D50800A0E58D8A0B4
:1012A00054EF09F056EF09F033EF09F0609EA49077
:1012B0000B50D96EDA6ADF6A1200016E0104D8A4FD
:1012C00064EF09F066EF09F08BEF09F082500F0B25
:1012D0000F0AD8B46EEF09F070EF09F07DEF09F056
:1012E0005C50D8B476EF09F078EF09F07DEF09F0A3
:1012F0005C6A82500F0B96EF09F082500F0B0F0AB9
:10130000D8A485EF09F087EF09F095EF09F0010EF9
:101310005C6E95EF09F00150D8A491EF09F093EFBE
:1013200009F095EF09F079EF09F0FF0E1200066A57
:10133000000E056E03500410D8B4A1EF09F0A3EF1E
:1013400009F0CBEF09F0010E076EABEF09F0D89072
:1013500003360436072A04AEB0EF09F0B2EF09F005
:10136000A7EF09F0D890053606360350015C04500B
:101370000258D8A0BEEF09F0C0EF09F0C5EF09F0A0
:101380000350015E0450025A0580D89004320332A3
:10139000072EB2EF09F005C001F006C002F01200FE
:1013A0000F01436B446B05C001F006C002F007EC6F
:1013B0000BF008C045FF460E0C6E0F0E0D6E0F6A47
:1013C000000E0E6EF2EF09F007500E24D96EDA6AA5
:1013D0000E500C24E16E0F500D20E26EDFCFE7FFC0
:1013E0000E4A0F2A0850096E0A6A09500E5C0F5007
:1013F000800A0B6E0A50800A0B58D8A002EF0AF040
:1014000004EF0AF0E4EF09F00F0140871200066ACA
:1014100001500624D96EDA6ADF50836E06C002F0EE
:10142000010E036E022A17EF0AF0D8900336022E3F
:1014300015EF0AF08050F00B0310806E030E056E5E
:10144000E80E046E0406D8A00506042806E1052867
:10145000D8A42DEF0AF02FEF0AF022EF0AF0062AA7
:10146000030E066436EF0AF038EF0AF008EF0AF0D0
:1014700012000A500B10D8B440EF0AF042EF0AF005
:1014800066EF0AF0010E0C6E4AEF0AF0D8900A36A9
:101490000B360C2A0BAE4FEF0AF051EF0AF046EF75
:1014A0000AF00A50085C0B500958D8A05AEF0AF00D
:1014B0005CEF0AF060EF0AF00A50085E0B50095A20
:1014C000D8900B320A320C2E51EF0AF008C008F007
:1014D00009C009F01200010E5DEC09F0536E0E0E0A
:1014E0005318D8A476EF0AF078EF0AF07EEF0AF0EE
:1014F00081808182819C819E9AEF0AF00D0E5318A3
:10150000D8A485EF0AF087EF0AF08DEF0AF08190FA
:101510008192819C819E9AEF0AF00B0E5318D8A4F9
:1015200094EF0AF096EF0AF09AEF0AF08190819218
:10153000818C818E1200DA0EF66E160EF76E000E9A
:10154000F86E00EE6AF010EE0AF00900F5CFEEFF3B
:10155000E550E150FAE1F60EF66E160EF76E000E4B
:10156000F86E0900F5CF5BF00900F5CF5CF000EEF6
:1015700060F00A0EEE6AE806FDE100EE4FF00C0E98
:10158000EE6AE806FDE100015BEF0BF0076E07C0B5
:1015900003F0D8900336D8900336C250C30B031023
:1015A000C26EC282C2B2D7EF0AF0D9EF0AF0D2EF10
:1015B0000AF0C350C4CF03F0046A03C004F0036A06
:1015C0000310056E0450066E05C001F006C002F05F
:1015D0001200939493861F0E6F166F8E800E6E18F6
:1015E000D8A4F5EF0AF0F7EF0AF0EEEF0AF0776A09
:1015F000E10E706E1B0E716E030E726E0D01D46BD8
:101600001F0E6F166F8C606A608A608C120001C0BA
:1016100003F0070E0316050E046ED8900336042E51
:101620000DEF0BF003500F01426F01C003F002C039
:1016300004F0D89004320332D89004320332D890A8
:10164000043203320350416F12006150036E046A8A
:10165000D89003360436D89003360436D890033633
:1016600004366238E842070B070B056E066A035022
:101670000510076E04500610086E07C001F008C080
:1016800002F01200C08EC09AC088C096C090C0827E
:10169000C094C292C19AC198C46AC36AC28012003F
:1016A00042EC0BF065EC0BF072EC0BF077EC0BF00E
:1016B000E9EC0AF0120050EC0BF0DBEC06F06BECFE
:1016C0000AF05DEF0BF0FEEF17F0956A9250F00B09
:1016D000926E8050F00B806E1200E721CB6B2D6E66
:1016E000EE23EF6F93909392939C939E12009450ED
:0816F0000F09946E12000101C4
:042FFC009BEF0AF04D
:020000040020DA
:08000000FFFFFFFFFFFFFFFF00
:020000040030CA
:0E000000FF071F1FFF8285FF0FC00FE00F409C
:00000001FF
