:04000000FEEF17F008
:1006000000002B50800B346E2B502B243A6E2AAEF8
:100610000CEF03F00EEF03F00FEF03F03A803A50C7
:10062000D8B415EF03F017EF03F02AEF03F03A28E0
:10063000D8A41DEF03F01FEF03F027EF03F0000E27
:10064000286E000E296E000E2A6E000E2B6E2A8E6A
:1006500032EF03F0000E286E000E296E000E2A6E97
:10066000000E2B6E2F50800B341A2F502F24396E12
:100670002EAE3DEF03F03FEF03F040EF03F0398083
:100680003950D8B446EF03F048EF03F05BEF03F0C6
:100690003928D8A44EEF03F050EF03F058EF03F0E1
:1006A000000E2C6E000E2D6E000E2E6E000E2F6EA4
:1006B0002E8E63EF03F0000E2C6E000E2D6E000EDA
:1006C0002E6E000E2F6E3950D8B469EF03F06BEF29
:1006D00003F073EF03F03A50D8A471EF03F073EF17
:1006E00003F07DEF03F0000E286E000E296E000E61
:1006F0002A6E000E2B6E13EF05F02E502802F3CF5A
:100700003FF0F4CF40F03F50356E366A376A386AB2
:1007100040503B6E3C6A3D6A3E6A2D502902F3CF41
:100720003FF0F4CF40F03F503526000E36223722FE
:10073000382240503B26000E3C223D223E222C50C7
:100740002A02F3CF3FF0F4CF40F03F503526000EA1
:1007500036223722382240503B26000E3C223D22D2
:100760003E2237C038F036C037F035C036F0356A33
:100770002C502902F3CF3FF0F4CF40F03F50352604
:1007800040503622000E3722000E38222D5028020B
:10079000F3CF3FF0F4CF40F03F50352640503622A3
:1007A000000E3722000E382237C038F036C037F03E
:1007B00035C036F0356A2C502802F3CF3FF0F4CF25
:1007C00040F03F50352640503622000E3722000EB2
:1007D00038222E502902F3CF3FF0F4CF40F03F50A3
:1007E0003B2640503C22000E3D22000E3E222D5062
:1007F0002A02F3CF3FF0F4CF40F03F503B26405069
:100800003C22000E3D22000E3E222E502A02F3CF43
:100810003FF0F4CF40F03F50306E4050316E326ABE
:10082000336A32C033F031C032F030C031F0306A58
:1008300030503B2631503C2232503D2233503E2234
:1008400035C030F036C031F037C032F038C033F048
:10085000190E30EF04F0D890333232323132303268
:10086000E82E2BEF04F030503B2631503C22325022
:100870003D2233503E2237C038F036C037F035C005
:1008800036F0356A39503AC030F0316A3026000E01
:100890003122820E30243F6EFF0E3120406E66EF13
:1008A00004F0D8903B363C363D363E3638AE5BEFF2
:1008B00004F05DEF04F05EEF04F03B80D890353635
:1008C0003636373638363F06D8A040063DAE6BEF99
:1008D00004F06DEF04F051EF04F0396A38AE73EFB5
:1008E00004F075EF04F099EF04F0FF0E3514306E4C
:1008F000FF0E3614316EFF0E3714326E7F0E381431
:10090000336E3050311032103310D8B48AEF04F007
:100910008CEF04F090EF04F0010E396E99EF04F0C3
:100920003BA095EF04F097EF04F099EF04F08CEF03
:1009300004F03950D8B49FEF04F0A1EF04F0C5EFF4
:1009400004F0010E3B26000E3C223D223E223EA03A
:10095000ACEF04F0AEEF04F0C5EF04F03BC030F0B4
:100960003CC031F03DC032F03EC033F0333433325E
:1009700032323132303230C03BF031C03CF032C024
:100980003DF033C03EF03F4A402A40BED0EF04F075
:10099000405008E13F28D8A0D0EF04F0D2EF04F097
:1009A000DCEF04F0000E3B6E000E3C6E800E3D6EE0
:1009B0007F0E3E6E09EF05F040BEE9EF04F04050B7
:1009C00006E13F04D8B0E7EF04F0E9EF04F0F4EFFC
:1009D00004F0000E3B6E000E3C6E000E3D6E000EED
:1009E0003E6E346A09EF05F03FC03AF0FF0E3B1649
:1009F000FF0E3C167F0E3D16000E3E163AA003EF8A
:100A000005F005EF05F006EF05F03D8ED8903A3081
:100A10003E6E34503E123BC028F03CC029F03DC031
:100A20002AF03EC02BF012001250800B1F6E1250A5
:100A30001224266E11AE1FEF05F021EF05F022EF14
:100A400005F026802650D8B428EF05F02AEF05F0EF
:100A50003EEF05F02628D8A430EF05F032EF05F080
:100A60003AEF05F0000E0F6E000E106E000E116EC4
:100A7000000E126E118E126A46EF05F0000E0F6E18
:100A8000000E106E000E116E000E126E1650800BCE
:100A90001F1A16501624276E15AE51EF05F053EFAE
:100AA00005F054EF05F027802750D8B45AEF05F031
:100AB0005CEF05F070EF05F02728D8A462EF05F091
:100AC00064EF05F06CEF05F0000E136E000E146E6F
:100AD000000E156E000E166E158E166A78EF05F074
:100AE000000E136E000E146E000E156E000E166EC4
:100AF0001350141015101610D8A481EF05F083EFD1
:100B000005F09BEF05F0000E0F6E000E106E000E4C
:100B1000116E000E126E800E11127F0E12121F50F7
:100B200012120FC00FF010C010F011C011F012C05F
:100B300012F0DAEF06F02650D8A4A1EF05F0A3EFEB
:100B400005F0ADEF05F0000E0F6E000E106E000EFA
:100B5000116E000E126EDAEF06F0275026C017F065
:100B6000186A175E000E185A7F0E1724206E000EAA
:100B70001820216E0FC01BF010C01CF011C01DF01A
:100B800012C01EF0000E0F6E000E106E000E116EE1
:100B9000000E126E000E226E000E236E000E246EEA
:100BA000000E256E276A0DEF06F02750D8B4DBEF54
:100BB00005F0DDEF05F0F4EF05F0D8901B361C369C
:100BC0001D361E36D8900F3610361136123625AE29
:100BD000ECEF05F0EEEF05F0EFEF05F00F80D890A9
:100BE000223623362436253613501B5C14501C58ED
:100BF00015501D5816501E58D8A001EF06F003EFEF
:100C000006F00CEF06F0258C13501B5E14501C5A96
:100C100015501D5A16501E5A272A190E276413EF15
:100C200006F015EF06F0D5EF05F01B501C101D1057
:100C30001E10D8B41EEF06F020EF06F038EF06F0D5
:100C4000228038EF06F0D8900F3610361136123663
:100C500025AE2DEF06F02FEF06F030EF06F00F80F7
:100C6000D89022362336243625362006D8A02106F1
:100C700011AE3DEF06F03FEF06F023EF06F0276AD6
:100C800025AE45EF06F047EF06F06BEF06F0FF0EDE
:100C90002214176EFF0E2314186EFF0E2414196E03
:100CA0007F0E25141A6E1750181019101A10D8B488
:100CB0005CEF06F05EEF06F062EF06F0010E276EC5
:100CC0006BEF06F00FA067EF06F069EF06F06BEF31
:100CD00006F05EEF06F02750D8B471EF06F073EF20
:100CE00006F097EF06F0010E0F26000E10221122DB
:100CF000122212A07EEF06F080EF06F097EF06F0CA
:100D00000FC017F010C018F011C019F012C01AF07F
:100D10001A341A3219321832173217C00FF018C0AD
:100D200010F019C011F01AC012F0204A212A21BE79
:100D3000A2EF06F0215008E12028D8A0A2EF06F08B
:100D4000A4EF06F0AFEF06F0000E216E2068000E53
:100D50000F6E000E106E000E116E000E126E21BE90
:100D6000BCEF06F0215006E12004D8B0BAEF06F03F
:100D7000BCEF06F0C8EF06F0216A000E206E000EF0
:100D80000F6E000E106E000E116E000E126E1F6AB6
:100D900020C026F026A0CFEF06F0D1EF06F0D4EF6A
:100DA00006F0118ED5EF06F0119ED8902630126E07
:100DB0008FEF05F01200040E3EEC0AF001C057F070
:100DC00002C058F0000E2C6E000E2D6E700E2E6EAE
:100DD000420E2F6E140E136EAE0E146E230E156E91
:100DE000410E166E57C001F058C002F0036A046A43
:100DF000000EB5EC07F001C00FF002C010F003C008
:100E000011F004C012F014EC05F00FC028F010C06F
:100E100029F011C02AF012C02BF001EC03F028C019
:100E200041F029C042F02AC043F02BC044F08FECBF
:100E300008F041C055F042C056F055C001F056C010
:100E400002F0030E046EE80E036E4CEC09F0015044
:100E5000300F4B6E046A640E036E55C001F056C02D
:100E600002F04CEC09F001C008F002C009F00B6A76
:100E70000A0E0A6EB7EC09F00850300F4C6E046A87
:100E80000A0E036E55C001F056C002F04CEC09F09A
:100E900001C008F002C009F00B6A0A0E0A6EB7EC36
:100EA00009F00850300F4D6E55C008F056C009F0DB
:100EB0000B6A0A0E0A6EB7EC09F00850300F4E6E3E
:100EC0004F6A55C001F056C002F0030E046EE80EE2
:100ED000036E4CEC09F00150600FD96EDA6ADF50F6
:100EE000516E046A640E036E55C001F056C002F0E4
:100EF0004CEC09F001C008F002C009F00B6A0A0EC0
:100F00000A6EB7EC09F00850600FD96EDA6ADF504C
:100F1000526E046A0A0E036E55C001F056C002F00C
:100F20004CEC09F001C008F002C009F00B6A0A0E8F
:100F30000A6EB7EC09F00850600FD96EDA6ADF501C
:100F4000536E55C008F056C009F00B6A0A0E0A6EBF
:100F5000B7EC09F00850600FD96EDA6ADF50546EB2
:100F6000510E016E85EC09F01200096E0950D8B4DB
:100F7000BCEF07F0BEEF07F0E0EF07F004BEC5EFEF
:100F800007F0C3EF07F0E0EF07F001C005F002C083
:100F900006F003C007F004C008F0051E061E071E79
:100FA000081E052A000E06220722082205C00BF0A3
:100FB00006C00CF007C00DF008C00EF0E8EF07F017
:100FC00001C00BF002C00CF003C00DF004C00EF025
:100FD0000150021003100410D8A4F1EF07F0F3EF52
:100FE00007F0FDEF07F0000E016E000E026E000E1E
:100FF000036E000E046E8EEF08F0960E0A6E07EF79
:1010000008F00A2AD8900E320D320C320B32000E44
:101010000B14056E000E0C14066E000E0D14076EF8
:10102000FE0E0E14086E0550061007100810D8A406
:101030001CEF08F01EEF08F001EF08F02CEF08F0AD
:101040000A2A010E0B26000E0C220D220E22D89029
:101050000E320D320C320B32000E0B14056E000EE8
:101060000C14066E000E0D14076EFF0E0E14086EA3
:101070000550061007100810D8A441EF08F043EF00
:1010800008F020EF08F04BEF08F00A06D8900B3676
:101090000C360D360E360DBE50EF08F052EF08F04C
:1010A0005AEF08F0020E0A6058EF08F05AEF08F005
:1010B00045EF08F00AB05FEF08F061EF08F062EF6B
:1010C00008F00D9ED8900A320AC005F0066A076A39
:1010D000086A05C008F0076A066A056A05500B121F
:1010E00006500C1207500D1208500E120950D8B4B9
:1010F0007CEF08F07EEF08F086EF08F004BE85EF85
:1011000008F083EF08F086EF08F00E8E0BC001F0B8
:101110000CC002F00DC003F00EC004F01200433406
:1011200044344A6E4A50D8A498EF08F09AEF08F079
:10113000A4EF08F0000E416E000E426E000E436EEA
:10114000000E446E11EF09F041C045F042C046F078
:1011500043C047F044C048F0200EB4EF08F0D890E8
:101160004832473246324532E82EAFEF08F045505C
:10117000496E438EFF0E4116FF0E4216FF0E4316B8
:10118000000E4416960E4A5E4ABECBEF08F0C9EF39
:1011900008F0E1EF08F04A50800A970FD8B0D3EF7B
:1011A00008F0D5EF08F0D7EF08F09AEF08F0D890E4
:1011B00044324332423241324A3ED7EF08F0F9EF2F
:1011C00008F01F0E4A64E7EF08F0E9EF08F0F1EFCE
:1011D00008F09AEF08F0D89041364236433644364C
:1011E0004A064A50D8A4F7EF08F0F9EF08F0EBEF01
:1011F00008F04950D8B4FFEF08F001EF09F009EF0B
:1012000009F0441E431E421E416C000E422243223E
:10121000442241C041F042C042F043C043F044C0C8
:1012200044F01200016E0104D8A419EF09F01BEF7D
:1012300009F040EF09F082500F0B0F0AD8B423EFEA
:1012400009F025EF09F032EF09F05A50D8B42BEF2E
:1012500009F02DEF09F032EF09F05A6A82500F0BB6
:101260004BEF09F082500F0B0F0AD8A43AEF09F0A8
:101270003CEF09F04AEF09F0010E5A6E4AEF09F00F
:101280000150D8A446EF09F048EF09F04AEF09F001
:101290002EEF09F0FF0E1200066A000E056E0350D5
:1012A0000410D8B456EF09F058EF09F080EF09F0B8
:1012B000010E076E60EF09F0D89003360436072A56
:1012C00004AE65EF09F067EF09F05CEF09F0D89024
:1012D000053606360350015C04500258D8A073EF5F
:1012E00009F075EF09F07AEF09F00350015E045040
:1012F000025A0580D89004320332072E67EF09F0B6
:1013000005C001F006C002F01200066A0150062472
:10131000D96EDA6ADF50836E06C002F0010E036EEA
:10132000022A95EF09F0D8900336022E93EF09F0C8
:101330008050F00B0310806E030E056EE80E046EF5
:101340000406D8A00506042806E10528D8A4ABEFBA
:1013500009F0ADEF09F0A0EF09F0062A030E0664CC
:10136000B4EF09F0B6EF09F086EF09F012000A5069
:101370000B10D8B4BEEF09F0C0EF09F0E4EF09F0AC
:10138000010E0C6EC8EF09F0D8900A360B360C2A05
:101390000BAECDEF09F0CFEF09F0C4EF09F00A5022
:1013A000085C0B500958D8A0D8EF09F0DAEF09F023
:1013B000DEEF09F00A50085E0B50095AD8900B3244
:1013C0000A320C2ECFEF09F008C008F009C009F06E
:1013D0001200010E12EC09F0506E0E0E5018D8A437
:1013E000F4EF09F0F6EF09F0FCEF09F0818081825B
:1013F000819C819E18EF0AF00B0E5018D8A403EFC1
:101400000AF005EF0AF00BEF0AF081908192818CCF
:10141000818E18EF0AF00D0E5018D8A412EF0AF0C2
:1014200014EF0AF018EF0AF081908192819C819E5E
:101430001200140EF66E150EF76E000EF86E00EE2A
:1014400060F010EE0AF00900F5CFEEFFE550E15034
:10145000FAE1300EF66E150EF76E000EF86E09000A
:10146000F5CF59F00900F5CF5AF000EE4BF00A0E17
:10147000EE6AE806FDE100016FEF0AF0076E07C0B3
:1014800003F0D8900336D8900336C250C30B031034
:10149000C26EC282C2B24FEF0AF051EF0AF04AEFB9
:1014A0000AF0C350C4CF03F0046A03C004F0036A17
:1014B0000310056E0450066E05C001F006C002F070
:1014C0001200C08EC09AC088C096C090C082C094DE
:1014D000C292C19AC198C46AC36AC280120079ECF0
:1014E0000AF0DBEC06F0E9EC09F071EF0AF0FEEF30
:1014F00017F061EC0AF082EC0AF08FEC0AF094EC41
:101500000AF01200956A9250F00B926E8050F00B28
:10151000806E1200E721CB6B2D6EEE23EF6F939060
:101520009392939C939E120094500F09946E120014
:021530000101B7
:042FFC0019EF0AF0CF
:020000040020DA
:08000000FFFFFFFFFFFFFFFF00
:020000040030CA
:0E000000FF071F1FFF8285FF0FC00FE00F409C
:00000001FF
